{
  "_format": "hh-sol-artifact-1",
  "contractName": "MetisApeWives",
  "sourceName": "contracts/MetisApeWives.sol",
  "abi": [
    {
      "inputs": [],
      "stateMutability": "nonpayable",
      "type": "constructor"
    },
    {
      "inputs": [],
      "name": "ApprovalCallerNotOwnerNorApproved",
      "type": "error"
    },
    {
      "inputs": [],
      "name": "ApprovalQueryForNonexistentToken",
      "type": "error"
    },
    {
      "inputs": [],
      "name": "ApprovalToCurrentOwner",
      "type": "error"
    },
    {
      "inputs": [],
      "name": "ApproveToCaller",
      "type": "error"
    },
    {
      "inputs": [],
      "name": "BalanceQueryForZeroAddress",
      "type": "error"
    },
    {
      "inputs": [],
      "name": "MintToZeroAddress",
      "type": "error"
    },
    {
      "inputs": [],
      "name": "MintZeroQuantity",
      "type": "error"
    },
    {
      "inputs": [],
      "name": "OwnerQueryForNonexistentToken",
      "type": "error"
    },
    {
      "inputs": [],
      "name": "TransferCallerNotOwnerNorApproved",
      "type": "error"
    },
    {
      "inputs": [],
      "name": "TransferFromIncorrectOwner",
      "type": "error"
    },
    {
      "inputs": [],
      "name": "TransferToNonERC721ReceiverImplementer",
      "type": "error"
    },
    {
      "inputs": [],
      "name": "TransferToZeroAddress",
      "type": "error"
    },
    {
      "anonymous": false,
      "inputs": [
        {
          "indexed": true,
          "internalType": "address",
          "name": "owner",
          "type": "address"
        },
        {
          "indexed": true,
          "internalType": "address",
          "name": "approved",
          "type": "address"
        },
        {
          "indexed": true,
          "internalType": "uint256",
          "name": "tokenId",
          "type": "uint256"
        }
      ],
      "name": "Approval",
      "type": "event"
    },
    {
      "anonymous": false,
      "inputs": [
        {
          "indexed": true,
          "internalType": "address",
          "name": "owner",
          "type": "address"
        },
        {
          "indexed": true,
          "internalType": "address",
          "name": "operator",
          "type": "address"
        },
        {
          "indexed": false,
          "internalType": "bool",
          "name": "approved",
          "type": "bool"
        }
      ],
      "name": "ApprovalForAll",
      "type": "event"
    },
    {
      "anonymous": false,
      "inputs": [
        {
          "indexed": true,
          "internalType": "address",
          "name": "previousOwner",
          "type": "address"
        },
        {
          "indexed": true,
          "internalType": "address",
          "name": "newOwner",
          "type": "address"
        }
      ],
      "name": "OwnershipTransferred",
      "type": "event"
    },
    {
      "anonymous": false,
      "inputs": [
        {
          "indexed": true,
          "internalType": "address",
          "name": "from",
          "type": "address"
        },
        {
          "indexed": true,
          "internalType": "address",
          "name": "to",
          "type": "address"
        },
        {
          "indexed": true,
          "internalType": "uint256",
          "name": "tokenId",
          "type": "uint256"
        }
      ],
      "name": "Transfer",
      "type": "event"
    },
    {
      "inputs": [],
      "name": "MAX_PUBLIC_MINT",
      "outputs": [
        {
          "internalType": "uint256",
          "name": "",
          "type": "uint256"
        }
      ],
      "stateMutability": "view",
      "type": "function"
    },
    {
      "inputs": [],
      "name": "MAX_SUPPLY",
      "outputs": [
        {
          "internalType": "uint256",
          "name": "",
          "type": "uint256"
        }
      ],
      "stateMutability": "view",
      "type": "function"
    },
    {
      "inputs": [],
      "name": "MAX_WHITELIST_MINT",
      "outputs": [
        {
          "internalType": "uint256",
          "name": "",
          "type": "uint256"
        }
      ],
      "stateMutability": "view",
      "type": "function"
    },
    {
      "inputs": [],
      "name": "PUBLIC_SALE_PRICE",
      "outputs": [
        {
          "internalType": "uint256",
          "name": "",
          "type": "uint256"
        }
      ],
      "stateMutability": "view",
      "type": "function"
    },
    {
      "inputs": [],
      "name": "WHITELIST_SALE_PRICE",
      "outputs": [
        {
          "internalType": "uint256",
          "name": "",
          "type": "uint256"
        }
      ],
      "stateMutability": "view",
      "type": "function"
    },
    {
      "inputs": [
        {
          "internalType": "address",
          "name": "to",
          "type": "address"
        },
        {
          "internalType": "uint256",
          "name": "tokenId",
          "type": "uint256"
        }
      ],
      "name": "approve",
      "outputs": [],
      "stateMutability": "nonpayable",
      "type": "function"
    },
    {
      "inputs": [
        {
          "internalType": "address",
          "name": "owner",
          "type": "address"
        }
      ],
      "name": "balanceOf",
      "outputs": [
        {
          "internalType": "uint256",
          "name": "",
          "type": "uint256"
        }
      ],
      "stateMutability": "view",
      "type": "function"
    },
    {
      "inputs": [
        {
          "internalType": "uint256",
          "name": "tokenId",
          "type": "uint256"
        }
      ],
      "name": "getApproved",
      "outputs": [
        {
          "internalType": "address",
          "name": "",
          "type": "address"
        }
      ],
      "stateMutability": "view",
      "type": "function"
    },
    {
      "inputs": [],
      "name": "getContractBalance",
      "outputs": [
        {
          "internalType": "uint256",
          "name": "amount",
          "type": "uint256"
        }
      ],
      "stateMutability": "view",
      "type": "function"
    },
    {
      "inputs": [],
      "name": "getMerkleRoot",
      "outputs": [
        {
          "internalType": "bytes32",
          "name": "",
          "type": "bytes32"
        }
      ],
      "stateMutability": "view",
      "type": "function"
    },
    {
      "inputs": [
        {
          "internalType": "address",
          "name": "owner",
          "type": "address"
        },
        {
          "internalType": "address",
          "name": "operator",
          "type": "address"
        }
      ],
      "name": "isApprovedForAll",
      "outputs": [
        {
          "internalType": "bool",
          "name": "",
          "type": "bool"
        }
      ],
      "stateMutability": "view",
      "type": "function"
    },
    {
      "inputs": [],
      "name": "isRevealed",
      "outputs": [
        {
          "internalType": "bool",
          "name": "",
          "type": "bool"
        }
      ],
      "stateMutability": "view",
      "type": "function"
    },
    {
      "inputs": [
        {
          "internalType": "uint256",
          "name": "_quantity",
          "type": "uint256"
        }
      ],
      "name": "mint",
      "outputs": [],
      "stateMutability": "payable",
      "type": "function"
    },
    {
      "inputs": [],
      "name": "name",
      "outputs": [
        {
          "internalType": "string",
          "name": "",
          "type": "string"
        }
      ],
      "stateMutability": "view",
      "type": "function"
    },
    {
      "inputs": [],
      "name": "owner",
      "outputs": [
        {
          "internalType": "address",
          "name": "",
          "type": "address"
        }
      ],
      "stateMutability": "view",
      "type": "function"
    },
    {
      "inputs": [
        {
          "internalType": "uint256",
          "name": "tokenId",
          "type": "uint256"
        }
      ],
      "name": "ownerOf",
      "outputs": [
        {
          "internalType": "address",
          "name": "",
          "type": "address"
        }
      ],
      "stateMutability": "view",
      "type": "function"
    },
    {
      "inputs": [],
      "name": "pause",
      "outputs": [
        {
          "internalType": "bool",
          "name": "",
          "type": "bool"
        }
      ],
      "stateMutability": "view",
      "type": "function"
    },
    {
      "inputs": [],
      "name": "placeholderTokenUri",
      "outputs": [
        {
          "internalType": "string",
          "name": "",
          "type": "string"
        }
      ],
      "stateMutability": "view",
      "type": "function"
    },
    {
      "inputs": [],
      "name": "publicSale",
      "outputs": [
        {
          "internalType": "bool",
          "name": "",
          "type": "bool"
        }
      ],
      "stateMutability": "view",
      "type": "function"
    },
    {
      "inputs": [],
      "name": "renounceOwnership",
      "outputs": [],
      "stateMutability": "nonpayable",
      "type": "function"
    },
    {
      "inputs": [
        {
          "internalType": "address",
          "name": "from",
          "type": "address"
        },
        {
          "internalType": "address",
          "name": "to",
          "type": "address"
        },
        {
          "internalType": "uint256",
          "name": "tokenId",
          "type": "uint256"
        }
      ],
      "name": "safeTransferFrom",
      "outputs": [],
      "stateMutability": "nonpayable",
      "type": "function"
    },
    {
      "inputs": [
        {
          "internalType": "address",
          "name": "from",
          "type": "address"
        },
        {
          "internalType": "address",
          "name": "to",
          "type": "address"
        },
        {
          "internalType": "uint256",
          "name": "tokenId",
          "type": "uint256"
        },
        {
          "internalType": "bytes",
          "name": "_data",
          "type": "bytes"
        }
      ],
      "name": "safeTransferFrom",
      "outputs": [],
      "stateMutability": "nonpayable",
      "type": "function"
    },
    {
      "inputs": [
        {
          "internalType": "address",
          "name": "operator",
          "type": "address"
        },
        {
          "internalType": "bool",
          "name": "approved",
          "type": "bool"
        }
      ],
      "name": "setApprovalForAll",
      "outputs": [],
      "stateMutability": "nonpayable",
      "type": "function"
    },
    {
      "inputs": [
        {
          "internalType": "bytes32",
          "name": "_merkleRoot",
          "type": "bytes32"
        }
      ],
      "name": "setMerkleRoot",
      "outputs": [],
      "stateMutability": "nonpayable",
      "type": "function"
    },
    {
      "inputs": [
        {
          "internalType": "string",
          "name": "_placeholderTokenUri",
          "type": "string"
        }
      ],
      "name": "setPlaceHolderUri",
      "outputs": [],
      "stateMutability": "nonpayable",
      "type": "function"
    },
    {
      "inputs": [
        {
          "internalType": "string",
          "name": "_baseTokenUri",
          "type": "string"
        }
      ],
      "name": "setTokenUri",
      "outputs": [],
      "stateMutability": "nonpayable",
      "type": "function"
    },
    {
      "inputs": [],
      "name": "showCaller",
      "outputs": [
        {
          "internalType": "address",
          "name": "ad",
          "type": "address"
        }
      ],
      "stateMutability": "view",
      "type": "function"
    },
    {
      "inputs": [
        {
          "internalType": "bytes4",
          "name": "interfaceId",
          "type": "bytes4"
        }
      ],
      "name": "supportsInterface",
      "outputs": [
        {
          "internalType": "bool",
          "name": "",
          "type": "bool"
        }
      ],
      "stateMutability": "view",
      "type": "function"
    },
    {
      "inputs": [],
      "name": "symbol",
      "outputs": [
        {
          "internalType": "string",
          "name": "",
          "type": "string"
        }
      ],
      "stateMutability": "view",
      "type": "function"
    },
    {
      "inputs": [],
      "name": "teamMint",
      "outputs": [],
      "stateMutability": "nonpayable",
      "type": "function"
    },
    {
      "inputs": [],
      "name": "teamMinted",
      "outputs": [
        {
          "internalType": "bool",
          "name": "",
          "type": "bool"
        }
      ],
      "stateMutability": "view",
      "type": "function"
    },
    {
      "inputs": [],
      "name": "togglePause",
      "outputs": [],
      "stateMutability": "nonpayable",
      "type": "function"
    },
    {
      "inputs": [],
      "name": "togglePublicSale",
      "outputs": [],
      "stateMutability": "nonpayable",
      "type": "function"
    },
    {
      "inputs": [],
      "name": "toggleReveal",
      "outputs": [],
      "stateMutability": "nonpayable",
      "type": "function"
    },
    {
      "inputs": [],
      "name": "toggleWhiteListSale",
      "outputs": [],
      "stateMutability": "nonpayable",
      "type": "function"
    },
    {
      "inputs": [
        {
          "internalType": "uint256",
          "name": "tokenId",
          "type": "uint256"
        }
      ],
      "name": "tokenURI",
      "outputs": [
        {
          "internalType": "string",
          "name": "",
          "type": "string"
        }
      ],
      "stateMutability": "view",
      "type": "function"
    },
    {
      "inputs": [
        {
          "internalType": "address",
          "name": "",
          "type": "address"
        }
      ],
      "name": "totalPublicMint",
      "outputs": [
        {
          "internalType": "uint256",
          "name": "",
          "type": "uint256"
        }
      ],
      "stateMutability": "view",
      "type": "function"
    },
    {
      "inputs": [],
      "name": "totalSupply",
      "outputs": [
        {
          "internalType": "uint256",
          "name": "",
          "type": "uint256"
        }
      ],
      "stateMutability": "view",
      "type": "function"
    },
    {
      "inputs": [
        {
          "internalType": "address",
          "name": "",
          "type": "address"
        }
      ],
      "name": "totalWhitelistMint",
      "outputs": [
        {
          "internalType": "uint256",
          "name": "",
          "type": "uint256"
        }
      ],
      "stateMutability": "view",
      "type": "function"
    },
    {
      "inputs": [
        {
          "internalType": "address",
          "name": "from",
          "type": "address"
        },
        {
          "internalType": "address",
          "name": "to",
          "type": "address"
        },
        {
          "internalType": "uint256",
          "name": "tokenId",
          "type": "uint256"
        }
      ],
      "name": "transferFrom",
      "outputs": [],
      "stateMutability": "nonpayable",
      "type": "function"
    },
    {
      "inputs": [
        {
          "internalType": "address",
          "name": "newOwner",
          "type": "address"
        }
      ],
      "name": "transferOwnership",
      "outputs": [],
      "stateMutability": "nonpayable",
      "type": "function"
    },
    {
      "inputs": [],
      "name": "whiteListSale",
      "outputs": [
        {
          "internalType": "bool",
          "name": "",
          "type": "bool"
        }
      ],
      "stateMutability": "view",
      "type": "function"
    },
    {
      "inputs": [
        {
          "internalType": "bytes32[]",
          "name": "_merkleProof",
          "type": "bytes32[]"
        },
        {
          "internalType": "uint256",
          "name": "_quantity",
          "type": "uint256"
        }
      ],
      "name": "whitelistMint",
      "outputs": [],
      "stateMutability": "payable",
      "type": "function"
    },
    {
      "inputs": [],
      "name": "withdraw",
      "outputs": [],
      "stateMutability": "nonpayable",
      "type": "function"
    }
  ],
  "bytecode": "0x60806040523480156200001157600080fd5b506040518060400160405280600e81526020017f4d657469732041706557697665730000000000000000000000000000000000008152506040518060400160405280600481526020017f6d44415700000000000000000000000000000000000000000000000000000000815250816002908051906020019062000096929190620001c1565b508060039080519060200190620000af929190620001c1565b50620000c0620000ee60201b60201c565b6000819055505050620000e8620000dc620000f360201b60201c565b620000fb60201b60201c565b620002d6565b600090565b600033905090565b6000600860009054906101000a900473ffffffffffffffffffffffffffffffffffffffff16905081600860006101000a81548173ffffffffffffffffffffffffffffffffffffffff021916908373ffffffffffffffffffffffffffffffffffffffff1602179055508173ffffffffffffffffffffffffffffffffffffffff168173ffffffffffffffffffffffffffffffffffffffff167f8be0079c531659141344cd1fd0a4f28419497f9722a3daafe3b4186f6b6457e060405160405180910390a35050565b828054620001cf9062000271565b90600052602060002090601f016020900481019282620001f357600085556200023f565b82601f106200020e57805160ff19168380011785556200023f565b828001600101855582156200023f579182015b828111156200023e57825182559160200191906001019062000221565b5b5090506200024e919062000252565b5090565b5b808211156200026d57600081600090555060010162000253565b5090565b600060028204905060018216806200028a57607f821691505b60208210811415620002a157620002a0620002a7565b5b50919050565b7f4e487b7100000000000000000000000000000000000000000000000000000000600052602260045260246000fd5b61498e80620002e66000396000f3fe6080604052600436106102675760003560e01c80636f9fb98a11610144578063b0962c53116100b6578063c4ae31681161007a578063c4ae3168146108a8578063c87b56dd146108bf578063e222c7f9146108fc578063e8b5498d14610913578063e985e9c51461093e578063f2fde38b1461097b57610267565b8063b0962c53146107e9578063b88d4fde14610812578063ba7a86b81461083b578063bc912e1a14610852578063c08dfd3c1461087d57610267565b806386a173ee1161010857806386a173ee1461070c5780638bb64a8c146107375780638da5cb5b1461074e57806395d89b4114610779578063a0712d68146107a4578063a22cb465146107c057610267565b80636f9fb98a1461063957806370a0823114610664578063715018a6146106a15780637cb64759146106b85780638456cb59146106e157610267565b806332cb6b0c116101dd57806349590657116101a157806349590657146105395780634cf5f7a41461056457806354214f691461058f5780635b8ad429146105ba5780636352211e146105d157806365f130971461060e57610267565b806332cb6b0c1461047857806333bc1c5c146104a35780633baabb20146104ce5780633ccfd60b146104f957806342842e0e1461051057610267565b8063081812fc1161022f578063081812fc14610365578063095ea7b3146103a257806318160ddd146103cb5780631c16521c146103f657806323b872dd146104335780632904e6d91461045c57610267565b806301ffc9a71461026c5780630345e3cb146102a95780630675b7c6146102e657806306fdde031461030f57806307e89ec01461033a575b600080fd5b34801561027857600080fd5b50610293600480360381019061028e91906138d9565b6109a4565b6040516102a09190613dc8565b60405180910390f35b3480156102b557600080fd5b506102d060048036038101906102cb91906136b5565b610a86565b6040516102dd9190613fe0565b60405180910390f35b3480156102f257600080fd5b5061030d6004803603810190610308919061392b565b610a9e565b005b34801561031b57600080fd5b50610324610b34565b6040516103319190613dfe565b60405180910390f35b34801561034657600080fd5b5061034f610bc6565b60405161035c9190613fe0565b60405180910390f35b34801561037157600080fd5b5061038c6004803603810190610387919061396c565b610bcf565b6040516103999190613d61565b60405180910390f35b3480156103ae57600080fd5b506103c960048036038101906103c49190613820565b610c4b565b005b3480156103d757600080fd5b506103e0610d56565b6040516103ed9190613fe0565b60405180910390f35b34801561040257600080fd5b5061041d600480360381019061041891906136b5565b610d6d565b60405161042a9190613fe0565b60405180910390f35b34801561043f57600080fd5b5061045a6004803603810190610455919061371a565b610d85565b005b6104766004803603810190610471919061385c565b610d95565b005b34801561048457600080fd5b5061048d611066565b60405161049a9190613fe0565b60405180910390f35b3480156104af57600080fd5b506104b861106c565b6040516104c59190613dc8565b60405180910390f35b3480156104da57600080fd5b506104e361107f565b6040516104f09190613d61565b60405180910390f35b34801561050557600080fd5b5061050e611087565b005b34801561051c57600080fd5b506105376004803603810190610532919061371a565b6112b7565b005b34801561054557600080fd5b5061054e6112d7565b60405161055b9190613de3565b60405180910390f35b34801561057057600080fd5b506105796112e1565b6040516105869190613dfe565b60405180910390f35b34801561059b57600080fd5b506105a461136f565b6040516105b19190613dc8565b60405180910390f35b3480156105c657600080fd5b506105cf611382565b005b3480156105dd57600080fd5b506105f860048036038101906105f3919061396c565b61142a565b6040516106059190613d61565b60405180910390f35b34801561061a57600080fd5b50610623611440565b6040516106309190613fe0565b60405180910390f35b34801561064557600080fd5b5061064e611445565b60405161065b9190613fe0565b60405180910390f35b34801561067057600080fd5b5061068b600480360381019061068691906136b5565b6114c9565b6040516106989190613fe0565b60405180910390f35b3480156106ad57600080fd5b506106b6611599565b005b3480156106c457600080fd5b506106df60048036038101906106da91906138b0565b611621565b005b3480156106ed57600080fd5b506106f66116a7565b6040516107039190613dc8565b60405180910390f35b34801561071857600080fd5b506107216116ba565b60405161072e9190613dc8565b60405180910390f35b34801561074357600080fd5b5061074c6116cd565b005b34801561075a57600080fd5b50610763611775565b6040516107709190613d61565b60405180910390f35b34801561078557600080fd5b5061078e61179f565b60405161079b9190613dfe565b60405180910390f35b6107be60048036038101906107b9919061396c565b611831565b005b3480156107cc57600080fd5b506107e760048036038101906107e291906137e4565b611a89565b005b3480156107f557600080fd5b50610810600480360381019061080b919061392b565b611c01565b005b34801561081e57600080fd5b5061083960048036038101906108349190613769565b611c97565b005b34801561084757600080fd5b50610850611d13565b005b34801561085e57600080fd5b50610867611e07565b6040516108749190613fe0565b60405180910390f35b34801561088957600080fd5b50610892611e10565b60405161089f9190613fe0565b60405180910390f35b3480156108b457600080fd5b506108bd611e15565b005b3480156108cb57600080fd5b506108e660048036038101906108e1919061396c565b611ebd565b6040516108f39190613dfe565b60405180910390f35b34801561090857600080fd5b5061091161201f565b005b34801561091f57600080fd5b506109286120c7565b6040516109359190613dc8565b60405180910390f35b34801561094a57600080fd5b50610965600480360381019061096091906136de565b6120da565b6040516109729190613dc8565b60405180910390f35b34801561098757600080fd5b506109a2600480360381019061099d91906136b5565b61216e565b005b60007f80ac58cd000000000000000000000000000000000000000000000000000000007bffffffffffffffffffffffffffffffffffffffffffffffffffffffff1916827bffffffffffffffffffffffffffffffffffffffffffffffffffffffff19161480610a6f57507f5b5e139f000000000000000000000000000000000000000000000000000000007bffffffffffffffffffffffffffffffffffffffffffffffffffffffff1916827bffffffffffffffffffffffffffffffffffffffffffffffffffffffff1916145b80610a7f5750610a7e82612266565b5b9050919050565b600e6020528060005260406000206000915090505481565b610aa66122d0565b73ffffffffffffffffffffffffffffffffffffffff16610ac4611775565b73ffffffffffffffffffffffffffffffffffffffff1614610b1a576040517f08c379a0000000000000000000000000000000000000000000000000000000008152600401610b1190613f80565b60405180910390fd5b8060099080519060200190610b309291906133eb565b5050565b606060028054610b43906142db565b80601f0160208091040260200160405190810160405280929190818152602001828054610b6f906142db565b8015610bbc5780601f10610b9157610100808354040283529160200191610bbc565b820191906000526020600020905b815481529060010190602001808311610b9f57829003601f168201915b5050505050905090565b6402540be40081565b6000610bda826122d8565b610c10576040517fcf4700e400000000000000000000000000000000000000000000000000000000815260040160405180910390fd5b6006600083815260200190815260200160002060009054906101000a900473ffffffffffffffffffffffffffffffffffffffff169050919050565b6000610c568261142a565b90508073ffffffffffffffffffffffffffffffffffffffff168373ffffffffffffffffffffffffffffffffffffffff161415610cbe576040517f943f7b8c00000000000000000000000000000000000000000000000000000000815260040160405180910390fd5b8073ffffffffffffffffffffffffffffffffffffffff16610cdd6122d0565b73ffffffffffffffffffffffffffffffffffffffff1614158015610d0f5750610d0d81610d086122d0565b6120da565b155b15610d46576040517fcfb3b94200000000000000000000000000000000000000000000000000000000815260040160405180910390fd5b610d51838383612326565b505050565b6000610d606123d8565b6001546000540303905090565b600d6020528060005260406000206000915090505481565b610d908383836123dd565b505050565b3373ffffffffffffffffffffffffffffffffffffffff163273ffffffffffffffffffffffffffffffffffffffff1614610e03576040517f08c379a0000000000000000000000000000000000000000000000000000000008152600401610dfa90613f20565b60405180910390fd5b600b60029054906101000a900460ff16610e52576040517f08c379a0000000000000000000000000000000000000000000000000000000008152600401610e4990613f40565b60405180910390fd5b61271081610e5e610d56565b610e689190614106565b1115610ea9576040517f08c379a0000000000000000000000000000000000000000000000000000000008152600401610ea090613e60565b60405180910390fd5b600f81600e60003373ffffffffffffffffffffffffffffffffffffffff1673ffffffffffffffffffffffffffffffffffffffff16815260200190815260200160002054610ef69190614106565b1115610f37576040517f08c379a0000000000000000000000000000000000000000000000000000000008152600401610f2e90613f60565b60405180910390fd5b8064012a05f200610f48919061418d565b341015610f8a576040517f08c379a0000000000000000000000000000000000000000000000000000000008152600401610f8190613e20565b60405180910390fd5b600033604051602001610f9d9190613d17565b604051602081830303815290604052805190602001209050610fc283600c5483612893565b611001576040517f08c379a0000000000000000000000000000000000000000000000000000000008152600401610ff890613e40565b60405180910390fd5b81600e60003373ffffffffffffffffffffffffffffffffffffffff1673ffffffffffffffffffffffffffffffffffffffff16815260200190815260200160002060008282546110509190614106565b9250508190555061106133836128aa565b505050565b61271081565b600b60019054906101000a900460ff1681565b600033905090565b61108f6122d0565b73ffffffffffffffffffffffffffffffffffffffff166110ad611775565b73ffffffffffffffffffffffffffffffffffffffff1614611103576040517f08c379a00000000000000000000000000000000000000000000000000000000081526004016110fa90613f80565b60405180910390fd5b60006064603247611114919061418d565b61111e919061415c565b905060006064602347611131919061418d565b61113b919061415c565b905060006064600f4761114e919061418d565b611158919061415c565b905073e7f40c69c5d95d05e4b5de91ed4feb54a685f63573ffffffffffffffffffffffffffffffffffffffff166108fc849081150290604051600060405180830381858888f193505050501580156111b4573d6000803e3d6000fd5b50735baa05635edadba555dac7a5f52c9d09b4e12ea473ffffffffffffffffffffffffffffffffffffffff166108fc839081150290604051600060405180830381858888f1935050505015801561120f573d6000803e3d6000fd5b5073067e96f53a04da7fb19f353237941da95a2398df73ffffffffffffffffffffffffffffffffffffffff166108fc829081150290604051600060405180830381858888f1935050505015801561126a573d6000803e3d6000fd5b503373ffffffffffffffffffffffffffffffffffffffff166108fc479081150290604051600060405180830381858888f193505050501580156112b1573d6000803e3d6000fd5b50505050565b6112d283838360405180602001604052806000815250611c97565b505050565b6000600c54905090565b600a80546112ee906142db565b80601f016020809104026020016040519081016040528092919081815260200182805461131a906142db565b80156113675780601f1061133c57610100808354040283529160200191611367565b820191906000526020600020905b81548152906001019060200180831161134a57829003601f168201915b505050505081565b600b60009054906101000a900460ff1681565b61138a6122d0565b73ffffffffffffffffffffffffffffffffffffffff166113a8611775565b73ffffffffffffffffffffffffffffffffffffffff16146113fe576040517f08c379a00000000000000000000000000000000000000000000000000000000081526004016113f590613f80565b60405180910390fd5b600b60009054906101000a900460ff1615600b60006101000a81548160ff021916908315150217905550565b6000611435826128c8565b600001519050919050565b600a81565b600061144f6122d0565b73ffffffffffffffffffffffffffffffffffffffff1661146d611775565b73ffffffffffffffffffffffffffffffffffffffff16146114c3576040517f08c379a00000000000000000000000000000000000000000000000000000000081526004016114ba90613f80565b60405180910390fd5b47905090565b60008073ffffffffffffffffffffffffffffffffffffffff168273ffffffffffffffffffffffffffffffffffffffff161415611531576040517f8f4eb60400000000000000000000000000000000000000000000000000000000815260040160405180910390fd5b600560008373ffffffffffffffffffffffffffffffffffffffff1673ffffffffffffffffffffffffffffffffffffffff16815260200190815260200160002060000160009054906101000a900467ffffffffffffffff1667ffffffffffffffff169050919050565b6115a16122d0565b73ffffffffffffffffffffffffffffffffffffffff166115bf611775565b73ffffffffffffffffffffffffffffffffffffffff1614611615576040517f08c379a000000000000000000000000000000000000000000000000000000000815260040161160c90613f80565b60405180910390fd5b61161f6000612b57565b565b6116296122d0565b73ffffffffffffffffffffffffffffffffffffffff16611647611775565b73ffffffffffffffffffffffffffffffffffffffff161461169d576040517f08c379a000000000000000000000000000000000000000000000000000000000815260040161169490613f80565b60405180910390fd5b80600c8190555050565b600b60039054906101000a900460ff1681565b600b60029054906101000a900460ff1681565b6116d56122d0565b73ffffffffffffffffffffffffffffffffffffffff166116f3611775565b73ffffffffffffffffffffffffffffffffffffffff1614611749576040517f08c379a000000000000000000000000000000000000000000000000000000000815260040161174090613f80565b60405180910390fd5b600b60029054906101000a900460ff1615600b60026101000a81548160ff021916908315150217905550565b6000600860009054906101000a900473ffffffffffffffffffffffffffffffffffffffff16905090565b6060600380546117ae906142db565b80601f01602080910402602001604051908101604052809291908181526020018280546117da906142db565b80156118275780601f106117fc57610100808354040283529160200191611827565b820191906000526020600020905b81548152906001019060200180831161180a57829003601f168201915b5050505050905090565b3373ffffffffffffffffffffffffffffffffffffffff163273ffffffffffffffffffffffffffffffffffffffff161461189f576040517f08c379a000000000000000000000000000000000000000000000000000000000815260040161189690613f20565b60405180910390fd5b600b60019054906101000a900460ff166118ee576040517f08c379a00000000000000000000000000000000000000000000000000000000081526004016118e590613e80565b60405180910390fd5b612710816118fa610d56565b6119049190614106565b1115611945576040517f08c379a000000000000000000000000000000000000000000000000000000000815260040161193c90613f00565b60405180910390fd5b600a81600d60003373ffffffffffffffffffffffffffffffffffffffff1673ffffffffffffffffffffffffffffffffffffffff168152602001908152602001600020546119929190614106565b11156119d3576040517f08c379a00000000000000000000000000000000000000000000000000000000081526004016119ca90613ec0565b60405180910390fd5b806402540be4006119e4919061418d565b341015611a26576040517f08c379a0000000000000000000000000000000000000000000000000000000008152600401611a1d90613fc0565b60405180910390fd5b80600d60003373ffffffffffffffffffffffffffffffffffffffff1673ffffffffffffffffffffffffffffffffffffffff1681526020019081526020016000206000828254611a759190614106565b92505081905550611a8633826128aa565b50565b611a916122d0565b73ffffffffffffffffffffffffffffffffffffffff168273ffffffffffffffffffffffffffffffffffffffff161415611af6576040517fb06307db00000000000000000000000000000000000000000000000000000000815260040160405180910390fd5b8060076000611b036122d0565b73ffffffffffffffffffffffffffffffffffffffff1673ffffffffffffffffffffffffffffffffffffffff16815260200190815260200160002060008473ffffffffffffffffffffffffffffffffffffffff1673ffffffffffffffffffffffffffffffffffffffff16815260200190815260200160002060006101000a81548160ff0219169083151502179055508173ffffffffffffffffffffffffffffffffffffffff16611bb06122d0565b73ffffffffffffffffffffffffffffffffffffffff167f17307eab39ab6107e8899845ad3d59bd9653f200f220920489ca2b5937696c3183604051611bf59190613dc8565b60405180910390a35050565b611c096122d0565b73ffffffffffffffffffffffffffffffffffffffff16611c27611775565b73ffffffffffffffffffffffffffffffffffffffff1614611c7d576040517f08c379a0000000000000000000000000000000000000000000000000000000008152600401611c7490613f80565b60405180910390fd5b80600a9080519060200190611c939291906133eb565b5050565b611ca28484846123dd565b611cc18373ffffffffffffffffffffffffffffffffffffffff16612c1d565b8015611cd65750611cd484848484612c40565b155b15611d0d576040517fd1a57ed600000000000000000000000000000000000000000000000000000000815260040160405180910390fd5b50505050565b611d1b6122d0565b73ffffffffffffffffffffffffffffffffffffffff16611d39611775565b73ffffffffffffffffffffffffffffffffffffffff1614611d8f576040517f08c379a0000000000000000000000000000000000000000000000000000000008152600401611d8690613f80565b60405180910390fd5b600b60049054906101000a900460ff1615611ddf576040517f08c379a0000000000000000000000000000000000000000000000000000000008152600401611dd690613ee0565b60405180910390fd5b6001600b60046101000a81548160ff021916908315150217905550611e053360c86128aa565b565b64012a05f20081565b600f81565b611e1d6122d0565b73ffffffffffffffffffffffffffffffffffffffff16611e3b611775565b73ffffffffffffffffffffffffffffffffffffffff1614611e91576040517f08c379a0000000000000000000000000000000000000000000000000000000008152600401611e8890613f80565b60405180910390fd5b600b60039054906101000a900460ff1615600b60036101000a81548160ff021916908315150217905550565b6060611ec8826122d8565b611f07576040517f08c379a0000000000000000000000000000000000000000000000000000000008152600401611efe90613fa0565b60405180910390fd5b6000600183611f169190614106565b9050600b60009054906101000a900460ff16611fbf57600a8054611f39906142db565b80601f0160208091040260200160405190810160405280929190818152602001828054611f65906142db565b8015611fb25780601f10611f8757610100808354040283529160200191611fb2565b820191906000526020600020905b815481529060010190602001808311611f9557829003601f168201915b505050505091505061201a565b600060098054611fce906142db565b905011611fea5760405180602001604052806000815250612016565b6009611ff582612da0565b604051602001612006929190613d32565b6040516020818303038152906040525b9150505b919050565b6120276122d0565b73ffffffffffffffffffffffffffffffffffffffff16612045611775565b73ffffffffffffffffffffffffffffffffffffffff161461209b576040517f08c379a000000000000000000000000000000000000000000000000000000000815260040161209290613f80565b60405180910390fd5b600b60019054906101000a900460ff1615600b60016101000a81548160ff021916908315150217905550565b600b60049054906101000a900460ff1681565b6000600760008473ffffffffffffffffffffffffffffffffffffffff1673ffffffffffffffffffffffffffffffffffffffff16815260200190815260200160002060008373ffffffffffffffffffffffffffffffffffffffff1673ffffffffffffffffffffffffffffffffffffffff16815260200190815260200160002060009054906101000a900460ff16905092915050565b6121766122d0565b73ffffffffffffffffffffffffffffffffffffffff16612194611775565b73ffffffffffffffffffffffffffffffffffffffff16146121ea576040517f08c379a00000000000000000000000000000000000000000000000000000000081526004016121e190613f80565b60405180910390fd5b600073ffffffffffffffffffffffffffffffffffffffff168173ffffffffffffffffffffffffffffffffffffffff16141561225a576040517f08c379a000000000000000000000000000000000000000000000000000000000815260040161225190613ea0565b60405180910390fd5b61226381612b57565b50565b60007f01ffc9a7000000000000000000000000000000000000000000000000000000007bffffffffffffffffffffffffffffffffffffffffffffffffffffffff1916827bffffffffffffffffffffffffffffffffffffffffffffffffffffffff1916149050919050565b600033905090565b6000816122e36123d8565b111580156122f2575060005482105b801561231f575060046000838152602001908152602001600020600001601c9054906101000a900460ff16155b9050919050565b826006600084815260200190815260200160002060006101000a81548173ffffffffffffffffffffffffffffffffffffffff021916908373ffffffffffffffffffffffffffffffffffffffff160217905550818373ffffffffffffffffffffffffffffffffffffffff168273ffffffffffffffffffffffffffffffffffffffff167f8c5be1e5ebec7d5bd14f71427d1e84f3dd0314c0f7b2291e5b200ac8c7c3b92560405160405180910390a4505050565b600090565b60006123e8826128c8565b90508373ffffffffffffffffffffffffffffffffffffffff16816000015173ffffffffffffffffffffffffffffffffffffffff1614612453576040517fa114810000000000000000000000000000000000000000000000000000000000815260040160405180910390fd5b60008473ffffffffffffffffffffffffffffffffffffffff166124746122d0565b73ffffffffffffffffffffffffffffffffffffffff1614806124a357506124a28561249d6122d0565b6120da565b5b806124e857506124b16122d0565b73ffffffffffffffffffffffffffffffffffffffff166124d084610bcf565b73ffffffffffffffffffffffffffffffffffffffff16145b905080612521576040517f59c896be00000000000000000000000000000000000000000000000000000000815260040160405180910390fd5b600073ffffffffffffffffffffffffffffffffffffffff168473ffffffffffffffffffffffffffffffffffffffff161415612588576040517fea553b3400000000000000000000000000000000000000000000000000000000815260040160405180910390fd5b6125958585856001612f4d565b6125a160008487612326565b6001600560008773ffffffffffffffffffffffffffffffffffffffff1673ffffffffffffffffffffffffffffffffffffffff16815260200190815260200160002060000160008282829054906101000a900467ffffffffffffffff160392506101000a81548167ffffffffffffffff021916908367ffffffffffffffff1602179055506001600560008673ffffffffffffffffffffffffffffffffffffffff1673ffffffffffffffffffffffffffffffffffffffff16815260200190815260200160002060000160008282829054906101000a900467ffffffffffffffff160192506101000a81548167ffffffffffffffff021916908367ffffffffffffffff1602179055506000600460008581526020019081526020016000209050848160000160006101000a81548173ffffffffffffffffffffffffffffffffffffffff021916908373ffffffffffffffffffffffffffffffffffffffff160217905550428160000160146101000a81548167ffffffffffffffff021916908367ffffffffffffffff16021790555060006001850190506000600460008381526020019081526020016000209050600073ffffffffffffffffffffffffffffffffffffffff168160000160009054906101000a900473ffffffffffffffffffffffffffffffffffffffff1673ffffffffffffffffffffffffffffffffffffffff16141561282157600054821461282057878160000160006101000a81548173ffffffffffffffffffffffffffffffffffffffff021916908373ffffffffffffffffffffffffffffffffffffffff16021790555084602001518160000160146101000a81548167ffffffffffffffff021916908367ffffffffffffffff1602179055505b5b505050828473ffffffffffffffffffffffffffffffffffffffff168673ffffffffffffffffffffffffffffffffffffffff167fddf252ad1be2c89b69c2b068fc378daa952ba7f163c4a11628f55a4df523b3ef60405160405180910390a461288c8585856001612f53565b5050505050565b6000826128a08584612f59565b1490509392505050565b6128c4828260405180602001604052806000815250612ff4565b5050565b6128d0613471565b6000829050806128de6123d8565b111580156128ed575060005481105b15612b20576000600460008381526020019081526020016000206040518060600160405290816000820160009054906101000a900473ffffffffffffffffffffffffffffffffffffffff1673ffffffffffffffffffffffffffffffffffffffff1673ffffffffffffffffffffffffffffffffffffffff1681526020016000820160149054906101000a900467ffffffffffffffff1667ffffffffffffffff1667ffffffffffffffff16815260200160008201601c9054906101000a900460ff16151515158152505090508060400151612b1e57600073ffffffffffffffffffffffffffffffffffffffff16816000015173ffffffffffffffffffffffffffffffffffffffff1614612a02578092505050612b52565b5b600115612b1d57818060019003925050600460008381526020019081526020016000206040518060600160405290816000820160009054906101000a900473ffffffffffffffffffffffffffffffffffffffff1673ffffffffffffffffffffffffffffffffffffffff1673ffffffffffffffffffffffffffffffffffffffff1681526020016000820160149054906101000a900467ffffffffffffffff1667ffffffffffffffff1667ffffffffffffffff16815260200160008201601c9054906101000a900460ff1615151515815250509050600073ffffffffffffffffffffffffffffffffffffffff16816000015173ffffffffffffffffffffffffffffffffffffffff1614612b18578092505050612b52565b612a03565b5b505b6040517fdf2d9b4200000000000000000000000000000000000000000000000000000000815260040160405180910390fd5b919050565b6000600860009054906101000a900473ffffffffffffffffffffffffffffffffffffffff16905081600860006101000a81548173ffffffffffffffffffffffffffffffffffffffff021916908373ffffffffffffffffffffffffffffffffffffffff1602179055508173ffffffffffffffffffffffffffffffffffffffff168173ffffffffffffffffffffffffffffffffffffffff167f8be0079c531659141344cd1fd0a4f28419497f9722a3daafe3b4186f6b6457e060405160405180910390a35050565b6000808273ffffffffffffffffffffffffffffffffffffffff163b119050919050565b60008373ffffffffffffffffffffffffffffffffffffffff1663150b7a02612c666122d0565b8786866040518563ffffffff1660e01b8152600401612c889493929190613d7c565b602060405180830381600087803b158015612ca257600080fd5b505af1925050508015612cd357506040513d601f19601f82011682018060405250810190612cd09190613902565b60015b612d4d573d8060008114612d03576040519150601f19603f3d011682016040523d82523d6000602084013e612d08565b606091505b50600081511415612d45576040517fd1a57ed600000000000000000000000000000000000000000000000000000000815260040160405180910390fd5b805181602001fd5b63150b7a0260e01b7bffffffffffffffffffffffffffffffffffffffffffffffffffffffff1916817bffffffffffffffffffffffffffffffffffffffffffffffffffffffff191614915050949350505050565b60606000821415612de8576040518060400160405280600181526020017f30000000000000000000000000000000000000000000000000000000000000008152509050612f48565b600082905060005b60008214612e1a578080612e039061433e565b915050600a82612e13919061415c565b9150612df0565b60008167ffffffffffffffff811115612e5c577f4e487b7100000000000000000000000000000000000000000000000000000000600052604160045260246000fd5b6040519080825280601f01601f191660200182016040528015612e8e5781602001600182028036833780820191505090505b5090505b60008514612f4157600182612ea791906141e7565b9150600a85612eb691906143ab565b6030612ec29190614106565b60f81b818381518110612efe577f4e487b7100000000000000000000000000000000000000000000000000000000600052603260045260246000fd5b60200101907effffffffffffffffffffffffffffffffffffffffffffffffffffffffffffff1916908160001a905350600a85612f3a919061415c565b9450612e92565b8093505050505b919050565b50505050565b50505050565b60008082905060005b8451811015612fe9576000858281518110612fa6577f4e487b7100000000000000000000000000000000000000000000000000000000600052603260045260246000fd5b60200260200101519050808311612fc857612fc18382613006565b9250612fd5565b612fd28184613006565b92505b508080612fe19061433e565b915050612f62565b508091505092915050565b613001838383600161301d565b505050565b600082600052816020526040600020905092915050565b600080549050600073ffffffffffffffffffffffffffffffffffffffff168573ffffffffffffffffffffffffffffffffffffffff16141561308a576040517f2e07630000000000000000000000000000000000000000000000000000000000815260040160405180910390fd5b60008414156130c5576040517fb562e8dd00000000000000000000000000000000000000000000000000000000815260040160405180910390fd5b6130d26000868387612f4d565b83600560008773ffffffffffffffffffffffffffffffffffffffff1673ffffffffffffffffffffffffffffffffffffffff16815260200190815260200160002060000160008282829054906101000a900467ffffffffffffffff160192506101000a81548167ffffffffffffffff021916908367ffffffffffffffff16021790555083600560008773ffffffffffffffffffffffffffffffffffffffff1673ffffffffffffffffffffffffffffffffffffffff16815260200190815260200160002060000160088282829054906101000a900467ffffffffffffffff160192506101000a81548167ffffffffffffffff021916908367ffffffffffffffff160217905550846004600083815260200190815260200160002060000160006101000a81548173ffffffffffffffffffffffffffffffffffffffff021916908373ffffffffffffffffffffffffffffffffffffffff160217905550426004600083815260200190815260200160002060000160146101000a81548167ffffffffffffffff021916908367ffffffffffffffff16021790555060008190506000858201905083801561329c575061329b8773ffffffffffffffffffffffffffffffffffffffff16612c1d565b5b15613362575b818773ffffffffffffffffffffffffffffffffffffffff16600073ffffffffffffffffffffffffffffffffffffffff167fddf252ad1be2c89b69c2b068fc378daa952ba7f163c4a11628f55a4df523b3ef60405160405180910390a46133116000888480600101955088612c40565b613347576040517fd1a57ed600000000000000000000000000000000000000000000000000000000815260040160405180910390fd5b808214156132a257826000541461335d57600080fd5b6133ce565b5b818060010192508773ffffffffffffffffffffffffffffffffffffffff16600073ffffffffffffffffffffffffffffffffffffffff167fddf252ad1be2c89b69c2b068fc378daa952ba7f163c4a11628f55a4df523b3ef60405160405180910390a480821415613363575b8160008190555050506133e46000868387612f53565b5050505050565b8280546133f7906142db565b90600052602060002090601f0160209004810192826134195760008555613460565b82601f1061343257805160ff1916838001178555613460565b82800160010185558215613460579182015b8281111561345f578251825591602001919060010190613444565b5b50905061346d91906134b4565b5090565b6040518060600160405280600073ffffffffffffffffffffffffffffffffffffffff168152602001600067ffffffffffffffff1681526020016000151581525090565b5b808211156134cd5760008160009055506001016134b5565b5090565b60006134e46134df84614020565b613ffb565b9050808382526020820190508285602086028201111561350357600080fd5b60005b858110156135335781613519888261360d565b845260208401935060208301925050600181019050613506565b5050509392505050565b600061355061354b8461404c565b613ffb565b90508281526020810184848401111561356857600080fd5b613573848285614299565b509392505050565b600061358e6135898461407d565b613ffb565b9050828152602081018484840111156135a657600080fd5b6135b1848285614299565b509392505050565b6000813590506135c8816148e5565b92915050565b600082601f8301126135df57600080fd5b81356135ef8482602086016134d1565b91505092915050565b600081359050613607816148fc565b92915050565b60008135905061361c81614913565b92915050565b6000813590506136318161492a565b92915050565b6000815190506136468161492a565b92915050565b600082601f83011261365d57600080fd5b813561366d84826020860161353d565b91505092915050565b600082601f83011261368757600080fd5b813561369784826020860161357b565b91505092915050565b6000813590506136af81614941565b92915050565b6000602082840312156136c757600080fd5b60006136d5848285016135b9565b91505092915050565b600080604083850312156136f157600080fd5b60006136ff858286016135b9565b9250506020613710858286016135b9565b9150509250929050565b60008060006060848603121561372f57600080fd5b600061373d868287016135b9565b935050602061374e868287016135b9565b925050604061375f868287016136a0565b9150509250925092565b6000806000806080858703121561377f57600080fd5b600061378d878288016135b9565b945050602061379e878288016135b9565b93505060406137af878288016136a0565b925050606085013567ffffffffffffffff8111156137cc57600080fd5b6137d88782880161364c565b91505092959194509250565b600080604083850312156137f757600080fd5b6000613805858286016135b9565b9250506020613816858286016135f8565b9150509250929050565b6000806040838503121561383357600080fd5b6000613841858286016135b9565b9250506020613852858286016136a0565b9150509250929050565b6000806040838503121561386f57600080fd5b600083013567ffffffffffffffff81111561388957600080fd5b613895858286016135ce565b92505060206138a6858286016136a0565b9150509250929050565b6000602082840312156138c257600080fd5b60006138d08482850161360d565b91505092915050565b6000602082840312156138eb57600080fd5b60006138f984828501613622565b91505092915050565b60006020828403121561391457600080fd5b600061392284828501613637565b91505092915050565b60006020828403121561393d57600080fd5b600082013567ffffffffffffffff81111561395757600080fd5b61396384828501613676565b91505092915050565b60006020828403121561397e57600080fd5b600061398c848285016136a0565b91505092915050565b61399e8161421b565b82525050565b6139b56139b08261421b565b614387565b82525050565b6139c48161422d565b82525050565b6139d381614239565b82525050565b60006139e4826140c3565b6139ee81856140d9565b93506139fe8185602086016142a8565b613a0781614498565b840191505092915050565b6000613a1d826140ce565b613a2781856140ea565b9350613a378185602086016142a8565b613a4081614498565b840191505092915050565b6000613a56826140ce565b613a6081856140fb565b9350613a708185602086016142a8565b80840191505092915050565b60008154613a89816142db565b613a9381866140fb565b94506001821660008114613aae5760018114613abf57613af2565b60ff19831686528186019350613af2565b613ac8856140ae565b60005b83811015613aea57815481890152600182019150602081019050613acb565b838801955050505b50505092915050565b6000613b08602c836140ea565b9150613b13826144b6565b604082019050919050565b6000613b2b6029836140ea565b9150613b3682614505565b604082019050919050565b6000613b4e6036836140ea565b9150613b5982614554565b604082019050919050565b6000613b716021836140ea565b9150613b7c826145a3565b604082019050919050565b6000613b946026836140ea565b9150613b9f826145f2565b604082019050919050565b6000613bb7602a836140ea565b9150613bc282614641565b604082019050919050565b6000613bda601d836140ea565b9150613be582614690565b602082019050919050565b6000613bfd6023836140ea565b9150613c08826146b9565b604082019050919050565b6000613c206030836140ea565b9150613c2b82614708565b604082019050919050565b6000613c436025836140ea565b9150613c4e82614757565b604082019050919050565b6000613c666034836140ea565b9150613c71826147a6565b604082019050919050565b6000613c896005836140fb565b9150613c94826147f5565b600582019050919050565b6000613cac6020836140ea565b9150613cb78261481e565b602082019050919050565b6000613ccf602f836140ea565b9150613cda82614847565b604082019050919050565b6000613cf26022836140ea565b9150613cfd82614896565b604082019050919050565b613d118161428f565b82525050565b6000613d2382846139a4565b60148201915081905092915050565b6000613d3e8285613a7c565b9150613d4a8284613a4b565b9150613d5582613c7c565b91508190509392505050565b6000602082019050613d766000830184613995565b92915050565b6000608082019050613d916000830187613995565b613d9e6020830186613995565b613dab6040830185613d08565b8181036060830152613dbd81846139d9565b905095945050505050565b6000602082019050613ddd60008301846139bb565b92915050565b6000602082019050613df860008301846139ca565b92915050565b60006020820190508181036000830152613e188184613a12565b905092915050565b60006020820190508181036000830152613e3981613afb565b9050919050565b60006020820190508181036000830152613e5981613b1e565b9050919050565b60006020820190508181036000830152613e7981613b41565b9050919050565b60006020820190508181036000830152613e9981613b64565b9050919050565b60006020820190508181036000830152613eb981613b87565b9050919050565b60006020820190508181036000830152613ed981613baa565b9050919050565b60006020820190508181036000830152613ef981613bcd565b9050919050565b60006020820190508181036000830152613f1981613bf0565b9050919050565b60006020820190508181036000830152613f3981613c13565b9050919050565b60006020820190508181036000830152613f5981613c36565b9050919050565b60006020820190508181036000830152613f7981613c59565b9050919050565b60006020820190508181036000830152613f9981613c9f565b9050919050565b60006020820190508181036000830152613fb981613cc2565b9050919050565b60006020820190508181036000830152613fd981613ce5565b9050919050565b6000602082019050613ff56000830184613d08565b92915050565b6000614005614016565b9050614011828261430d565b919050565b6000604051905090565b600067ffffffffffffffff82111561403b5761403a614469565b5b602082029050602081019050919050565b600067ffffffffffffffff82111561406757614066614469565b5b61407082614498565b9050602081019050919050565b600067ffffffffffffffff82111561409857614097614469565b5b6140a182614498565b9050602081019050919050565b60008190508160005260206000209050919050565b600081519050919050565b600081519050919050565b600082825260208201905092915050565b600082825260208201905092915050565b600081905092915050565b60006141118261428f565b915061411c8361428f565b9250827fffffffffffffffffffffffffffffffffffffffffffffffffffffffffffffffff03821115614151576141506143dc565b5b828201905092915050565b60006141678261428f565b91506141728361428f565b9250826141825761418161440b565b5b828204905092915050565b60006141988261428f565b91506141a38361428f565b9250817fffffffffffffffffffffffffffffffffffffffffffffffffffffffffffffffff04831182151516156141dc576141db6143dc565b5b828202905092915050565b60006141f28261428f565b91506141fd8361428f565b9250828210156142105761420f6143dc565b5b828203905092915050565b60006142268261426f565b9050919050565b60008115159050919050565b6000819050919050565b60007fffffffff0000000000000000000000000000000000000000000000000000000082169050919050565b600073ffffffffffffffffffffffffffffffffffffffff82169050919050565b6000819050919050565b82818337600083830152505050565b60005b838110156142c65780820151818401526020810190506142ab565b838111156142d5576000848401525b50505050565b600060028204905060018216806142f357607f821691505b602082108114156143075761430661443a565b5b50919050565b61431682614498565b810181811067ffffffffffffffff8211171561433557614334614469565b5b80604052505050565b60006143498261428f565b91507fffffffffffffffffffffffffffffffffffffffffffffffffffffffffffffffff82141561437c5761437b6143dc565b5b600182019050919050565b600061439282614399565b9050919050565b60006143a4826144a9565b9050919050565b60006143b68261428f565b91506143c18361428f565b9250826143d1576143d061440b565b5b828206905092915050565b7f4e487b7100000000000000000000000000000000000000000000000000000000600052601160045260246000fd5b7f4e487b7100000000000000000000000000000000000000000000000000000000600052601260045260246000fd5b7f4e487b7100000000000000000000000000000000000000000000000000000000600052602260045260246000fd5b7f4e487b7100000000000000000000000000000000000000000000000000000000600052604160045260246000fd5b6000601f19601f8301169050919050565b60008160601b9050919050565b7f4d65746973204170655769766573203a3a205061796d656e742069732062656c60008201527f6f77207468652070726963650000000000000000000000000000000000000000602082015250565b7f4d65746973204170655769766573203a3a20596f7520617265206e6f7420776860008201527f6974656c69737465640000000000000000000000000000000000000000000000602082015250565b7f4d65746973204170655769766573203a3a2043616e6e6f74206d696e74206d6f60008201527f7265207468616e20746865206d617820737570706c7900000000000000000000602082015250565b7f4d65746973204170655769766573203a3a204e6f74205965742041637469766560008201527f2e00000000000000000000000000000000000000000000000000000000000000602082015250565b7f4f776e61626c653a206e6577206f776e657220697320746865207a65726f206160008201527f6464726573730000000000000000000000000000000000000000000000000000602082015250565b7f4d65746973204170655769766573203a3a20416c7265616479206d696e74656460008201527f2031302074696d65732100000000000000000000000000000000000000000000602082015250565b7f4d65746973204170655769766573203a3a205465616d206d696e746564000000600082015250565b7f4d65746973204170655769766573203a3a204265796f6e64204d61782053757060008201527f706c790000000000000000000000000000000000000000000000000000000000602082015250565b7f4d65746973204170655769766573203a3a2043616e6e6f742062652063616c6c60008201527f6564206279206120636f6e747261637400000000000000000000000000000000602082015250565b7f4d65746973204170655769766573203a3a204d696e74696e67206973206f6e2060008201527f5061757365000000000000000000000000000000000000000000000000000000602082015250565b7f4d65746973204170655769766573203a3a2043616e6e6f74206d696e74206d6f60008201527f7265207468616e20313520417065576976657321000000000000000000000000602082015250565b7f2e6a736f6e000000000000000000000000000000000000000000000000000000600082015250565b7f4f776e61626c653a2063616c6c6572206973206e6f7420746865206f776e6572600082015250565b7f4552433732314d657461646174613a2055524920717565727920666f72206e6f60008201527f6e6578697374656e7420746f6b656e0000000000000000000000000000000000602082015250565b7f4d65746973204170655769766573203a3a204e6f7420656e6f756768204d657460008201527f6973000000000000000000000000000000000000000000000000000000000000602082015250565b6148ee8161421b565b81146148f957600080fd5b50565b6149058161422d565b811461491057600080fd5b50565b61491c81614239565b811461492757600080fd5b50565b61493381614243565b811461493e57600080fd5b50565b61494a8161428f565b811461495557600080fd5b5056fea2646970667358221220efb965d77cb72829339b160fc4fc912b10829be3ab793a3d14d381f0ba05b16064736f6c63430008040033",
  "linkReferences": {},
  "deployedLinkReferences": {}
}