{
  "_format": "hh-sol-artifact-1",
  "contractName": "RoboPunks",
  "sourceName": "contracts/RoboPunksNFT.sol",
  "abi": [
    {
      "inputs": [],
      "name": "index",
      "outputs": [
        {
          "internalType": "uint256",
          "name": "",
          "type": "uint256"
        }
      ],
      "stateMutability": "view",
      "type": "function"
    },
    {
      "inputs": [
        {
          "internalType": "bytes32[]",
          "name": "_merkleProof",
          "type": "bytes32[]"
        }
      ],
      "name": "isWhiteListed",
      "outputs": [
        {
          "internalType": "bool",
          "name": "",
          "type": "bool"
        }
      ],
      "stateMutability": "view",
      "type": "function"
    },
    {
      "inputs": [
        {
          "internalType": "address",
          "name": "_address",
          "type": "address"
        },
        {
          "internalType": "bytes32[]",
          "name": "_merkleProof",
          "type": "bytes32[]"
        }
      ],
      "name": "isWhiteListed2",
      "outputs": [
        {
          "internalType": "bool",
          "name": "",
          "type": "bool"
        }
      ],
      "stateMutability": "view",
      "type": "function"
    },
    {
      "inputs": [
        {
          "internalType": "bytes32[]",
          "name": "_merkleProof",
          "type": "bytes32[]"
        }
      ],
      "name": "isWhiteListed2Pyable",
      "outputs": [
        {
          "internalType": "bytes32",
          "name": "",
          "type": "bytes32"
        }
      ],
      "stateMutability": "nonpayable",
      "type": "function"
    },
    {
      "inputs": [],
      "name": "merkleRoot",
      "outputs": [
        {
          "internalType": "bytes32",
          "name": "",
          "type": "bytes32"
        }
      ],
      "stateMutability": "view",
      "type": "function"
    },
    {
      "inputs": [
        {
          "internalType": "string",
          "name": "_somearguement",
          "type": "string"
        }
      ],
      "name": "showCaller",
      "outputs": [
        {
          "internalType": "address",
          "name": "",
          "type": "address"
        }
      ],
      "stateMutability": "view",
      "type": "function"
    },
    {
      "inputs": [
        {
          "internalType": "address",
          "name": "_address",
          "type": "address"
        }
      ],
      "name": "testFunctionWithAddress",
      "outputs": [
        {
          "internalType": "bytes32",
          "name": "",
          "type": "bytes32"
        }
      ],
      "stateMutability": "view",
      "type": "function"
    },
    {
      "inputs": [
        {
          "internalType": "address",
          "name": "_address",
          "type": "address"
        }
      ],
      "name": "testFunctionWithMsgDotSender",
      "outputs": [
        {
          "internalType": "bytes32",
          "name": "",
          "type": "bytes32"
        }
      ],
      "stateMutability": "view",
      "type": "function"
    },
    {
      "inputs": [
        {
          "internalType": "address",
          "name": "",
          "type": "address"
        }
      ],
      "name": "whiteListClaimed",
      "outputs": [
        {
          "internalType": "bool",
          "name": "",
          "type": "bool"
        }
      ],
      "stateMutability": "view",
      "type": "function"
    },
    {
      "inputs": [
        {
          "internalType": "bytes32[]",
          "name": "_merkleProof",
          "type": "bytes32[]"
        }
      ],
      "name": "whiteListMint",
      "outputs": [],
      "stateMutability": "nonpayable",
      "type": "function"
    }
  ],
  "bytecode": "0x60806040527f673b4fe4d0f0f89f5bb7becf97bf41d68256079152258bfacb79ed8c0072244b60001b6000556001805534801561003b57600080fd5b50610ce78061004b6000396000f3fe608060405234801561001057600080fd5b506004361061009e5760003560e01c80633316939c116100665780633316939c1461016f5780633e804bf31461019f57806374b4c62a146101cf57806397254e55146101ff578063ae257bb61461021b5761009e565b80631638ef49146100a35780632333f3c4146100d35780632986c0e5146101035780632c902d6b146101215780632eb4a7ab14610151575b600080fd5b6100bd60048036038101906100b89190610828565b61024b565b6040516100ca91906109d5565b60405180910390f35b6100ed60048036038101906100e891906107ff565b610310565b6040516100fa91906109d5565b60405180910390f35b61010b610330565b6040516101189190610a4b565b60405180910390f35b61013b60048036038101906101369190610880565b610336565b60405161014891906109f0565b60405180910390f35b610159610384565b60405161016691906109f0565b60405180910390f35b610189600480360381019061018491906108c5565b61038a565b60405161019691906109ba565b60405180910390f35b6101b960048036038101906101b491906107ff565b61039f565b6040516101c691906109f0565b60405180910390f35b6101e960048036038101906101e491906107ff565b6103d4565b6040516101f691906109f0565b60405180910390f35b61021960048036038101906102149190610880565b610409565b005b61023560048036038101906102309190610880565b6105ab565b60405161024291906109d5565b60405180910390f35b6000808460405160200161025f919061099f565b6040516020818303038152906040528051906020012090506102c5848480806020026020016040519081016040528093929190818152602001838360200280828437600081840152601f19601f820116905080830192505050505050506000548361066f565b610304576040517f08c379a00000000000000000000000000000000000000000000000000000000081526004016102fb90610a0b565b60405180910390fd5b60019150509392505050565b60026020528060005260406000206000915054906101000a900460ff1681565b60015481565b6000803360405160200161034a919061099f565b6040516020818303038152906040528051906020012090506001600081548092919061037590610b5f565b91905055508091505092915050565b60005481565b60008082905060003390508092505050919050565b600080826040516020016103b3919061099f565b60405160208183030381529060405280519060200120905080915050919050565b600080336040516020016103e8919061099f565b60405160208183030381529060405280519060200120905080915050919050565b600260003373ffffffffffffffffffffffffffffffffffffffff1673ffffffffffffffffffffffffffffffffffffffff16815260200190815260200160002060009054906101000a900460ff1615610496576040517f08c379a000000000000000000000000000000000000000000000000000000000815260040161048d90610a2b565b60405180910390fd5b6000336040516020016104a9919061099f565b60405160208183030381529060405280519060200120905061050f838380806020026020016040519081016040528093929190818152602001838360200280828437600081840152601f19601f820116905080830192505050505050506000548361066f565b61054e576040517f08c379a000000000000000000000000000000000000000000000000000000000815260040161054590610a0b565b60405180910390fd5b6001600260003373ffffffffffffffffffffffffffffffffffffffff1673ffffffffffffffffffffffffffffffffffffffff16815260200190815260200160002060006101000a81548160ff021916908315150217905550505050565b600080336040516020016105bf919061099f565b604051602081830303815290604052805190602001209050610625848480806020026020016040519081016040528093929190818152602001838360200280828437600081840152601f19601f820116905080830192505050505050506000548361066f565b610664576040517f08c379a000000000000000000000000000000000000000000000000000000000815260040161065b90610a0b565b60405180910390fd5b600191505092915050565b60008261067c8584610686565b1490509392505050565b60008082905060005b84518110156107165760008582815181106106d3577f4e487b7100000000000000000000000000000000000000000000000000000000600052603260045260246000fd5b602002602001015190508083116106f5576106ee8382610721565b9250610702565b6106ff8184610721565b92505b50808061070e90610b5f565b91505061068f565b508091505092915050565b600082600052816020526040600020905092915050565b600061074b61074684610a8b565b610a66565b90508281526020810184848401111561076357600080fd5b61076e848285610b1f565b509392505050565b60008135905061078581610c9a565b92915050565b60008083601f84011261079d57600080fd5b8235905067ffffffffffffffff8111156107b657600080fd5b6020830191508360208202830111156107ce57600080fd5b9250929050565b600082601f8301126107e657600080fd5b81356107f6848260208601610738565b91505092915050565b60006020828403121561081157600080fd5b600061081f84828501610776565b91505092915050565b60008060006040848603121561083d57600080fd5b600061084b86828701610776565b935050602084013567ffffffffffffffff81111561086857600080fd5b6108748682870161078b565b92509250509250925092565b6000806020838503121561089357600080fd5b600083013567ffffffffffffffff8111156108ad57600080fd5b6108b98582860161078b565b92509250509250929050565b6000602082840312156108d757600080fd5b600082013567ffffffffffffffff8111156108f157600080fd5b6108fd848285016107d5565b91505092915050565b61090f81610acd565b82525050565b61092661092182610acd565b610ba8565b82525050565b61093581610adf565b82525050565b61094481610aeb565b82525050565b6000610957601483610abc565b915061096282610c48565b602082019050919050565b600061097a601b83610abc565b915061098582610c71565b602082019050919050565b61099981610b15565b82525050565b60006109ab8284610915565b60148201915081905092915050565b60006020820190506109cf6000830184610906565b92915050565b60006020820190506109ea600083018461092c565b92915050565b6000602082019050610a05600083018461093b565b92915050565b60006020820190508181036000830152610a248161094a565b9050919050565b60006020820190508181036000830152610a448161096d565b9050919050565b6000602082019050610a606000830184610990565b92915050565b6000610a70610a81565b9050610a7c8282610b2e565b919050565b6000604051905090565b600067ffffffffffffffff821115610aa657610aa5610bfb565b5b610aaf82610c2a565b9050602081019050919050565b600082825260208201905092915050565b6000610ad882610af5565b9050919050565b60008115159050919050565b6000819050919050565b600073ffffffffffffffffffffffffffffffffffffffff82169050919050565b6000819050919050565b82818337600083830152505050565b610b3782610c2a565b810181811067ffffffffffffffff82111715610b5657610b55610bfb565b5b80604052505050565b6000610b6a82610b15565b91507fffffffffffffffffffffffffffffffffffffffffffffffffffffffffffffffff821415610b9d57610b9c610bcc565b5b600182019050919050565b6000610bb382610bba565b9050919050565b6000610bc582610c3b565b9050919050565b7f4e487b7100000000000000000000000000000000000000000000000000000000600052601160045260246000fd5b7f4e487b7100000000000000000000000000000000000000000000000000000000600052604160045260246000fd5b6000601f19601f8301169050919050565b60008160601b9050919050565b7f496e76616c6964206d65726b6c652070726f6f66000000000000000000000000600082015250565b7f616464726573732068617320616c726561647920636c61696d65640000000000600082015250565b610ca381610acd565b8114610cae57600080fd5b5056fea26469706673582212204ade98bab51ee99215d4cb24bab78a82a662cb444f75f6b3208c61aaa4bca14164736f6c63430008040033",
  "linkReferences": {},
  "deployedLinkReferences": {}
}